:020000040800F2
:1000000000000420E1780008117600081976000845
:100010002176000829760008317600083179000839
:10002000000000000000000000000000F1A3010833
:10003000397600080000000081A301085D6D010809
:1000400031790008317900083179000831790008E8
:1000500031790008317900083179000831790008D8
:1000600031790008317900083179000831790008C8
:1000700031790008317900083179000831790008B8
:1000800031790008317900083179000831790008A8
:100090003179000831790008317900083179000898
:1000A0003179000831790008317900083179000888
:1000B00031790008497600085D760008317900083A
:1000C0003179000831790008317900083179000868
:1000D000317900083179000831790008717600081B
:1000E0008576000831790008997600083179000892
:1000F0003179000831790008317900083179000838
:1001000031790008AD760008C17600083179000821
:100110003179000831790008317900083179000817
:1001200031790008D5760008E976000831790008B1
:10013000FD7600083179000831790008317900082E
:100140003179000831790008117700083179000809
:1001500031790008317900083179000831790008D7
:1001600031790008257700083179000831790008D5
:10017000317900080000000031790008000000001B
:1001800039770008317900083179000831790008A1
:100190003179000831790008317900083179000897
:1001A0003179000831790008317900083179000887
:1001B00031790008000000004D770008317900080F
:1001C0003179000800000000317900083179000819
:1001D0003179000831790008317900083179000857
:1001E0003179000831790008317900083179000847
:0401F000000000000B
:1002000010B5054C237833B9044B13B10448AFF350
:1002100000800123237010BD1005032000000000A2
:100220003CAD010808B5034B1BB103490348AFF3CC
:10023000008008BD00000000140503203CAD01084B
:1002400080B483B000AF7860396000BF0C37BD4622
:100250005DF8047B7047000080B500AF034B0022BF
:100260001A6003480FF01CFF00BF80BDC0290320A7
:100270000009032080B400AF034B1B681846BD463D
:100280005DF8047B704700BFC029032080B584B0AF
:1002900002AF72B600BF7D4B4FF000629A60BFF3B1
:1002A0004F8F00BF62B600BF07F043FB00F05AF962
:1002B00000F022FC00F0DAFB00F0DDFA00F0FCFABE
:1002C00000F08AFA00F00EFB00F0CCF900F0E6FA3C
:1002D00000F060FA00F0C8FA00F0E7FA00F09EFBC8
:1002E00000F040FB00F006FB00F072FB684B0022C0
:1002F0001A70684B0093684B0022012146F20600F9
:1003000017F090FC0346654A1360654B0093654BFC
:100310000022012146F2060017F084FC0346624ADF
:100320001360624B0093624B002201214FF47A600C
:1003300017F078FC03465F4A13605F4B00935F4BF6
:10034000002201214FF47A6017F06CFC03465C4AEE
:1003500013605C4B00935C4B002201214FF4A040E2
:1003600017F060FC0346594A1360594B0093594BF0
:10037000002201214FF4A04017F054FC0346564AD6
:10038000136002F0F9F818F055FB4A4B0093534BF9
:10039000424A534901F0C2FF524803F075FF5248E8
:1003A00001F0CAFC514A5249524801F02DFA00238B
:1003B0003B603B46184602F0CBF80346002B0FD1BA
:1003C0003B68002B0CD100237B607B6843F0B97342
:1003D0007B607B6843F004037B60786802F07EF802
:1003E00016F0D6FC444A0021444816F01BFD034693
:1003F000434A1360434A0021434816F013FD034665
:10040000424A1360424A0021424816F00BFD03465F
:10041000374A1360404A0021404816F003FD034666
:100420003F4A13603F4A00213F4816F0FBFC034659
:100430002E4A13603D4A00213D4816F0F3FC034666
:10044000274A13603B4A00213B4816F0EBFC034669
:100450003A4A13603A4A00213A4816F0E3FC034650
:10046000394A1360394A0021394816F0DBFC03464B
:10047000384A1360384A0021384816F0D3FC034646
:10048000374A136016F0A8FC00BFFDE700ED00E05E
:10049000A4280320A828032004200020802903206A
:1004A000CC2803200C80002084290320F02803207E
:1004B00014E000208C29032014290320B4EF00202D
:1004C000902903203829032054FF0020B82A032054
:1004D0005C290320544F0120BC2A032088290320D3
:1004E000381F03206C070320FC050320881A032013
:1004F000281103202006032078AE0108210C0008F3
:10050000740C03209CAE0108390C0008780C032001
:10051000C0AE01082D0D0008E4AE0108050E00086C
:10052000D815032008AF0108A90E00082CAF010858
:10053000410F000850AF0108E1110008E823032033
:1005400074AF0108611300089828032098AF0108D0
:10055000771300089C280320BCAF01088D13000806
:10056000A028032080B59EB000AF07F130034822D9
:10057000002118461AF0FEFA07F11C0300221A6047
:100580005A609A60DA601A613B1D00221A605A6054
:100590009A60DA601A615A614FF400700DF0D0FB76
:1005A0000346002B01D000F029FF29233B634FF4C1
:1005B00080337B630123BB650023BB6401237B6421
:1005C0000223FB6503233B6601237B661023BB6686
:1005D0000723FB6604233B6702237B6707F1300395
:1005E00018460DF03DFC0346002B01D000F006FF3D
:1005F0000F23FB6103233B6200237B620023BB626A
:100600000023FB6207F11C03032118460EF0FEF8DD
:100610000346002B01D000F0F1FE114B9B6D104AF8
:1006200043F0807393650E4B9B6D03F080733B60CA
:100630003B6800237B604FF00053BB600023FB60EE
:100640004BF67F333B6122237B612023BB613B1D43
:1006500018460EF061FF00BF7837BD4680BD00BF71
:100660000010024080B58AB000AF07F11C030022E1
:100670001A605A609A603B1D00221A605A609A60A4
:10068000DA601A615A613E4B3E4A1A603C4B4FF4A5
:1006900030125A603A4B00229A60394B0022DA60DD
:1006A000374B01221A61364B04225A61344B002227
:1006B0001A76334B01225A76314B0322DA61304BE2
:1006C000002283F820202E4B00229A622C4B00221D
:1006D000DA622B4B012283F83020294B4FF48052F1
:1006E0005A63274B002283F83820254807F044FB43
:1006F0000346002B01D000F081FE0023FB6107F1CF
:100700001C0319461E4808F07FFA0346002B01D04F
:1007100000F074FE1C4B7B600623BB600023FB6073
:100720007F233B6104237B610023BB613B1D194692
:10073000134807F03FFD0346002B01D000F05EFE9A
:10074000124B7B600C23BB603B1D19460C4807F025
:1007500031FD0346002B01D000F050FE0C4B7B60B6
:100760001223BB603B1D1946054807F023FD0346D5
:10077000002B01D000F042FE00BF2837BD4680BDEF
:100780002C05032000800242400020190002B02501
:100790000004002A80B500AF0D4B0E4A1A600C4BC6
:1007A00000221A710A4B00225A71094B00225A6129
:1007B000074B00229A61064B01221A62044808F096
:1007C000F5FB0346002B01D000F018FE00BF80BDF2
:1007D000FC0503200030024080B500AF204B214AC9
:1007E0001A601F4B00225A601D4B4FF440729A60F2
:1007F0001B4B0022DA601A4B01221A74184B00229C
:100800005A74174B00229A74154B01225A61144BEB
:1008100010229A61124B3C22DA61114B13221A62A8
:100820000F4B01225A620E4B10229A620C4B0F2280
:10083000DA620B4B04221A63094B01225A63084BFC
:1008400001229A63064B0022DA63054809F05CF83E
:100850000346002B01D000F0D1FD00BF80BD00BFDA
:100860002006032000A4004080B400AF00BFBD46B6
:100870005DF8047B704780B500AF00200BF0A8FD49
:100880000346002B01D000F0B9FD0BF0C1FD03467B
:10089000002B01D000F0B2FD00BF80BD80B400AFDE
:1008A00000BFBD465DF8047B704780B400AF00BF59
:1008B000BD465DF8047B704780B500AF074B084A22
:1008C0001A60064B00225A6004480EF0F9FF0346F6
:1008D000002B01D000F092FD00BF80BD6C0703200B
:1008E00000080C4280B400AF00BFBD465DF8047B39
:1008F0007047000080B584B000AF3B1D00221A6035
:100900005A609A60154B164A1A60144B42F20F72E5
:100910005A60124B00229A60104B41F63F72DA6027
:100920000E4B00229A610D480FF0FBFA0346002B94
:1009300001D000F063FD00237B600023FB603B1DC2
:10094000194606480FF0F2FD0346002B01D000F0D7
:1009500055FD00BF1037BD4680BD00BFB408032061
:100960000010004080B584B000AF3B1D00221A602B
:100970005A609A60144B154A1A60134B00225A6051
:10098000114B00229A60104B41F63F72DA600E4B19
:1009900000229A610C480FF0C4FA0346002B01D0E4
:1009A00000F02CFD00237B600023FB603B1D1946FB
:1009B00005480FF0BBFD0346002B01D000F01EFDE3
:1009C00000BF1037BD4680BD000903200014004061
:1009D00080B500AF0F4B104A1A600E4B4F225A6081
:1009E0000C4B00229A600B4B4FF6FF72DA60094BFA
:1009F00000221A61074B00225A61064B00229A61BD
:100A000004480FF08EFA0346002B01D000F0F6FCEC
:100A100000BF80BD4C0903200044014080B500AFF9
:100A2000104B114A1A600F4B08221A710D4B02220B
:100A30005A710C4B0222DA710A4B00221A72094BCE
:100A400000225A72074B00229A72064B0022DA7279
:100A500004480BF0EDFC0346002B01D000F0CEFC67
:100A600000BF80BD9809032000D4004080B584B049
:100A700000AF204B9B6C1F4A43F0040393641D4B53
:100A80009B6C03F00403FB60FB681A4B9B6C194AD8
:100A900043F001039364174B9B6C03F00103BB60AD
:100AA000BB68144B9B6C134A43F002039364114BD5
:100AB0009B6C03F002037B607B68002205211D20F4
:100AC00008F039FA1D2008F050FA002205211E20F6
:100AD00008F031FA1E2008F048FA002205215020C3
:100AE00008F029FA502008F040FA00BF1037BD4640
:100AF00080BD00BF0010024080B58AB000AF07F192
:100B0000140300221A605A609A60DA601A613F4B3F
:100B1000DB6C3E4A43F00403D3643C4BDB6C03F0D4
:100B200004033B613B69394BDB6C384A43F080037B
:100B3000D364364BDB6C03F08003FB60FB68334B04
:100B4000DB6C324A43F00103D364304BDB6C03F0BF
:100B50000103BB60BB682D4BDB6C2C4A43F00203E6
:100B6000D3642A4BDB6C03F002037B607B680022BA
:100B70004FF4604126480AF0F9FD002240F20111CD
:100B800024480AF0F3FD002241F2E40122480AF071
:100B9000EDFD4FF460437B610123BB610023FB61EA
:100BA00000233B6207F11403194619480AF070FB51
:100BB00040F201137B610123BB610023FB61002331
:100BC0003B6207F11403194612480AF061FB41F237
:100BD000E4037B610123BB610023FB6100233B62D3
:100BE00007F1140319460C480AF052FB08237B61F5
:100BF0000023BB610023FB6107F11403194607487A
:100C00000AF046FB00BF2837BD4680BD00100240F9
:100C1000000802420000024200040242001C02429C
:100C200080B582B000AF7860786801F0FFF800BF4F
:100C30000837BD4680BD000080B59EB000AF78602B
:100C4000364B186807F14C014FF0FF33282217F09C
:100C5000AFF90346282BF3D1BB6D184605F0D8FE3B
:100C6000034687F8773097F87730002B09D02B4B65
:100C7000186897F8772007F10C014FF0FF3317F051
:100C800097F97B6D002B12D1FB6C97F8771007F169
:100C90000C02184601F024F917F0CCFE024607F1C9
:100CA0000C0107F14C03184601F07CFB2AE07B6D38
:100CB000B3F1005F26D1FB6C40F20272934221D166
:100CC000174B00225A61164B00229A61144B0022E6
:100CD0009A603B6D124A5360FB6C114A1360BB6D06
:100CE0000F4AD3600E4BDB68082B02D90C4B08224D
:100CF000DA6008220B490C4805F0C6FE0A4908488C
:100D000000F06AFE17F096FE024607F10C0107F1AB
:100D10004C03184601F05AF892E700BFB82A0320A6
:100D2000942903209005FA0BB829032080B59EB0C2
:100D300000AF786000233B6715E02F4B18683A6FCF
:100D40001346DB0013449B001A4607F14C03991825
:100D50003B6FC3F124024FF0FF3317F029F902462D
:100D60003B6F13443B673B6F232BE6D9BB6D1846A3
:100D700005F04EFE034687F877307B6DB3F1005FD8
:100D800002D1002387F8773097F87730002B1FD0F7
:100D900000233B6711E0184B186807F10C023B6F0A
:100DA000D11897F877203B6FD21A4FF0FF3317F026
:100DB000FFF802463B6F13443B6797F877303A6F72
:100DC0009A42E8D304E04FF0FF31012018F012FB03
:100DD0000A4809F0F2F90346002BF4D007F10C029F
:100DE00007F14C031946054809F026F8044BDB6867
:100DF0000133034AD3609DE7BC2A03202006032069
:100E00000000032080B584B000AF786001F05CF88A
:100E100000F01EFD03221F491F4807F0F9F803F0F8
:100E2000BFF900F0F1FA03F0D3F917F003FE03461F
:100E3000184600F0BBFF19480FF032F918480FF0C0
:100E4000C7F817F0F7FD0346FB60FB68184603F090
:100E5000B3F9FB68184603F0C7F9FB68184600F0C1
:100E6000DBFA104B1B78DBB2002B03D1FB68184672
:100E700001F010FAFB68184600F0B4FFFB68184652
:100E800001F074FA07F10C030A21184617F04EFC22
:100E9000D7E700BFDC2A03202C050320B408032079
:100EA0004C0903205400032080B5A8B000AF78603F
:100EB0004FF0FF31012018F09DFA19F009F91D4893
:100EC00009F0EFFBC7F89C0007F1600319461948C9
:100ED00009F0FEF807F18C031946164809F048F9A5
:100EE000154AD7F89C309360134A07F10C0311465A
:100EF0005422184619F0CAFE0E4B00221A66BB6A2D
:100F0000B3F5003F0BD90C4B9B6803F40013002B87
:100F100005D0094B012283F8202000F0B3FC19F022
:100F2000E9F8064B186800230222002118F0FEFAA7
:100F3000BEE700BF20060320000003202811032085
:100F400080B588B002AF786000237B739D4B1B682F
:100F5000184616F0ECFE0346002B00F0D080994BAB
:100F6000186807F10D014FF0FF33012217F020F848
:100F70000346012B40F0C380924B1B68184616F0C5
:100F8000D6FE0346012B40F2BA808E4B186807F15B
:100F90000E014FF0FF33022217F00AF80346022B2E
:100FA00040F0AD80FB89B3F5805F80F0A88000231E
:100FB000FB82FB89002B17D012E0824B1868FB8A5A
:100FC000814A9918FB891A46FB8AD31A1A464FF0B0
:100FD000FF3316F0EDFF03469AB2FB8A1344FB82FF
:100FE000FB89FA8A9A42E8D17B7B002B35D117F036
:100FF00021FDFA8907F10A030093744B724905F049
:1010000055FA7B89002B1DD0714B186807F10A0136
:101010004FF0FF33022216F0A0FE38616C4B1868C7
:101020007B891A464FF0FF33684916F096FE024658
:101030003B6913443B61674B18680023022200217F
:1010400018F074FA17F0F6FCFA8907F10A03009316
:101050005E4B5D4905F0AEFC51E017F0EBFCFA8900
:1010600007F10A030093594B574905F0F7FB7B89B9
:10107000002B3AD000237B75544B1B787F2B02D07A
:1010800001237B7510E07B89022B0DD94F4B9B7898
:10109000112B09D04D4B9B78122B05D04B4B9B78D5
:1010A000312B01D001237B757B7D002B1DD0484B5C
:1010B000186807F10A014FF0FF33022216F04DFEC7
:1010C0003861434B18687B891A464FF0FF333F491C
:1010D00016F043FE02463B6913443B613D4B1868E2
:1010E00000230222002118F021FA17F0A3FCFA894C
:1010F00007F10A030093354B334905F05BFC364B8F
:101100001B68184616F013FE0346012B54D9324BC8
:10111000186807F10E014FF0FF33022216F048FF66
:101120000346022B48D1FB89B3F5805F44D20023EC
:10113000FB8212E0284B1868FB8A234A9918FB8926
:101140001A46FB8AD31A1A464FF0FF3316F030FFC7
:1011500003469AB2FB8A1344FB82FB89FA8A9A42BD
:10116000E8D117F067FCFA8907F10A030093174BDF
:10117000154905F009FF7B89002B1DD0174B186816
:1011800007F10A014FF0FF33022216F0E6FD386145
:10119000124B18687B891A464FF0FF330B4916F043
:1011A000DCFD02463B6913443B610A4B186800238F
:1011B0000222002118F0BAF94FF0FF31002018F098
:1011C00019F9C3E680290320000000200410002044
:1011D00084290320E82303208C290320902903205D
:1011E00080B586B000AF78600023FB82564B1B6849
:1011F000184616F09CFD0346012B5ED9524B186829
:101200004FF0FF330222514916F0D2FE0346022B63
:1012100053D14F4B03F580539B8AB3F5805F4CD27B
:101220000023FB8215E0484B1868FB8A494A99184D
:10123000474B03F580539B8A1A46FB8AD31A1A46FA
:101240004FF0FF3316F0B4FE03469AB2FB8A134404
:10125000FB823F4B03F580539B8AFA8A9A42E2D184
:1012600017F0E8FB03461946394801F03DFE0346F6
:10127000002B22D116E0344B1B68184616F057FDA0
:101280000346012B18D8344B1B78DBB2002B05D05A
:101290002F4B03F5005393F8233000E00A23184640
:1012A00015F053FE17F0C6FB0346184605F026F866
:1012B0000346012BDFD100E000BF284B1B68184616
:1012C00016F035FD0346012B38D9244B186807F179
:1012D00014014FF0FF33022216F06AFE0346022B80
:1012E0002CD1BB8A082B29D80023FB8213E01B4B8F
:1012F0001868FB8A07F10C02D118BB8A1A46FB8AD0
:10130000D31A1A464FF0FF3316F052FE03469AB234
:10131000FB8A1344FB82BB8AFA8A9A42E7D102E035
:101320000A2015F012FE17F085FBBA8A07F10C03AC
:10133000194605F0C9FD0346012BF1D14FF0FF31ED
:10134000002018F057F851E78429032068AF0120E6
:10135000549F012070AF01205400032090290320E6
:1013600080B582B000AF7860786800F06AFD00BF99
:101370000837BD4680BD80B582B000AF7860786820
:1013800000F06AFD00BF0837BD4680BD80B582B061
:1013900000AF7860002000F06AFD00BF0837BD464E
:1013A00080BD000080B582B000AF78607B681B68AC
:1013B0000E4A934205D10E4B1B6801330C4A136051
:1013C0000FE07B681B680B4A934202D106F0CCFA0F
:1013D00007E07B681B68084A934202D1786800F0F6
:1013E00013FD00BF0837BD4680BD00BF001400409C
:1013F000C0290320002C01400010004080B400AF41
:1014000072B600BF00BFFDE780B400AF00BFBD46AD
:101410005DF8047B7047000080B582B000AF786053
:10142000194B1B889BB2184605F04DFB03461A4624
:10143000164B9A84144B9B889BB2184605F043FBCD
:1014400003461A46124B9A840F4B1B7BDBB21AB22F
:101450000D4B93F82030DBB21BB21B021BB21343BF
:101460001BB29AB20B4B9A84074B9B7DDBB21A4698
:10147000094B9A84044B5B8B9AB2084B9A8400BF49
:101480000837BD4680BD00BF58000320F40003208C
:1014900064010320D401032044020320B40203208A
:1014A00080B400AF00BFBD465DF8047B704700000C
:1014B00080B584B000AF78600B467B80194B00226A
:1014C0005A62184B0222DA62164B01221A63154B3C
:1014D00040F2FF729A630023FB7318E0FB7B114A12
:1014E0009362FB7B5B007A6813441B881A460D4BA2
:1014F0005A630D4B1B680D49184608F07AFB0346EA
:10150000002B01D0FFF77AFFFB7B0133FB73FB7BE2
:101510009BB27A889A42E1D800BF00BF1037BD461F
:1015200080BD00BF00000320C42903202400032045
:1015300080B584B000AF78600B467B80194B4FF0CC
:101540008042DA63174B02225A64164B01229A64D6
:10155000144B6FF000421A650023FB7317E0FB7B0E
:10156000104A1364FB7B9B007A6813441B680D4A86
:10157000D3640D4B1B680D49184608F03AFB03462F
:10158000002B01D0FFF73AFFFB7B0133FB73FB7BA2
:101590009BB27A889A42E2D800BF00BF1037BD469E
:1015A00080BD00BF00000320C42903203C000320AD
:1015B00080B48BB000AF78606FF000433B620123D2
:1015C000FB757B68404A934203D940F2EE233B838C
:1015D0000AE07B683D4A934203D94FF448733B834A
:1015E00002E040F26B333B833B8B394AA2FB03237F
:1015F0001B09BB82374B3B610123BB833A697B6884
:10160000B2FBF3F3FB770AE0BB8B0133BB83BB8BED
:101610003A69B2FBF3F27B68B2FBF3F3FB77FB7F33
:10162000192BF1D845E0FB7F5B08FB7631E0FA7FB0
:10163000FB7ED31ADBB2013BFB733A8BFB7E4FF48C
:101640007A7103FB01F1FB7F91FBF3F3D31A7B6209
:101650007B6A002B02DA7B6A5B427B627A6A3B6AB6
:101660009A4213DABB8A7A6A9A420FDC7B6A3B623F
:10167000194B1B68BA8B5A61174B1B68FA7EDA61EB
:10168000154B1B68FA7B1A620023FB75FB7E013346
:10169000FB76FA7EFB7F023B9A42C8DBBB8B0133B1
:1016A000BB83BB8B3A69B2FBF3F27B68B2FBF3F30B
:1016B000FB77BB8BB3F5806FB5D3FB7D18462C371A
:1016C000BD465DF8047B704700350C0020A1070083
:1016D000CDCCCCCC005A6202C429032080B582B0A4
:1016E00002AF0022402143480AF040F8424B1B68F9
:1016F000184608F05BFA404B1B680A225A633E4BBF
:101700001B6801229A633C4B1B68184608F0FCF8E2
:101710000346002B01D0FFF771FE0A213748FFF77F
:10172000C7FE01213648FFF703FF334B186800233B
:10173000009300230222022108F0B5FA0346002B91
:1017400001D0FFF75BFE2C4B1B68184608F0DCFA53
:101750000346002B01D0FFF751FE274B1B680022E8
:101760000121184608F03BFD0346002B01D0FFF78E
:1017700045FE214B1B6800220621184608F02FFD6C
:101780000346002B01D0FFF739FE1B4B1B680722D5
:101790004FF4F051184608F022FD0346002B01D00B
:1017A000FFF72CFE144B1B6807228021184608F017
:1017B00016FD0346002B01D0FFF720FE0E4B1B68E1
:1017C00000221049184608F00AFD0346002B01D0FC
:1017D000FFF714FE084B1B6800224FF460211846E7
:1017E00008F0FDFC0346002B01D0FFF707FE00BF09
:1017F000BD4680BD00040242C4290320E0AF0108B9
:10180000F4AF01080040710080B584B000AFF8600B
:10181000B9607A60094AFB681360094ABB681360C3
:10182000084A7B6813600849012015F07CFD0346D7
:10183000064A136000BF1037BD4680BDC42903208F
:10184000C8290320CC290320682A0320642A032006
:1018500080B500AF0A4B1B68184608F0A7F9084B83
:101860001B68184608F050F80346002B01D0FFF71C
:10187000C5FD00F08FF8FFF731FF00BF80BD00BF4E
:10188000C429032080B500AF034B1B68184608F03D
:101890008DF900BF80BD00BFC429032080B584B08E
:1018A00000AF78600023FB737B68082B4DD801A242
:1018B00052F823F0D9180008E7180008F5180008B6
:1018C000031900080F1900081B1900082719000840
:1018D000331900083F19000842F21070FFF768FE44
:1018E0000346FB7344E044F62060FFF761FE0346C5
:1018F000FB733DE04CF25030FFF75AFE0346FB739A
:1019000036E01E48FFF754FE0346FB7330E01C48E8
:10191000FFF74EFE0346FB732AE01A48FFF748FE26
:101920000346FB7324E01848FFF742FE0346FB73AF
:101930001EE01648FFF73CFE0346FB7318E0144810
:10194000FFF736FE0346FB7312E07B6842F20F722C
:1019500093420AD97B680E4A934206D87868FFF70B
:1019600027FE0346FB7300BF01E00123FB7300BFAA
:10197000FB7B18461037BD4680BD00BFA086010026
:1019800048E8010090D0030020A1070000350C00BA
:1019900040420F0080B400AF0E4B00221A710D4B75
:1019A0000022DA600B4B00221A610A4B00225A61B6
:1019B000084B00229A61074B00229A60054B0022D7
:1019C000DA61044B002283F8202000BFBD465DF899
:1019D000047B70470000032080B586B000AF7860BC
:1019E00039600023BB747B68DB68184605F010F88B
:1019F0000346FB747B689B68B3F1005F01D1002351
:101A0000FB74FB7C2433FB6000BF2C4B1B684FF046
:101A1000FF31184615F09FFE0346012BF5D1284BE8
:101A20001B68184616F059F90246FB6893420AD91A
:101A3000244B1B79DBB243F00203DAB2214B1A715B
:101A40000223BB7425E01E4B18684FF0FF3324229D
:101A5000796816F082F97861FB7C002B0BD0184B6B
:101A60001868FA7C4FF0FF33396816F076F90246B1
:101A70007B6913447B617A69FB689A4209D0114BF8
:101A80001B79DBB243F00803DAB20E4B1A71012363
:101A9000BB740A4B186800230022002115F05EFC7D
:101AA000094B1B68186800230222002117F03EFD35
:101AB000BB7C18461837BD4680BD00BF642A032092
:101AC000BC2A032000000320C829032080B586B06B
:101AD00000AF786039600023BB603B6803F001030E
:101AE000002B4FD0454B464A4021786808F0E8F972
:101AF0000346002B01D0FFF7D3FC424B5B69013357
:101B0000404A53613E4BDB68184604F081FF0346B0
:101B1000FB74FB7C2833FB603B4B1B68184616F0BC
:101B2000DCF80246FB6893420ED9364B9B690133C1
:101B3000344A9361354B1B681B6807F10802114654
:101B4000184617F051FE1DE02F4B186807F10803E7
:101B500028222B4916F09AF97861FB7C002B0BD0D8
:101B6000294B1868FA7C07F10803244916F08EF90E
:101B700002467B6913447B617A69FB689A4201D013
:101B8000FFF78EFC3B6803F00203002B0BD01D4BCC
:101B90001B79DBB243F00103DAB21A4B1A717B688E
:101BA0001B6802221A653B6803F00403002B19D05E
:101BB000144B9B690133134A9361124B1B79DBB2BF
:101BC00043F00803DAB20F4B1A717B681B680422DA
:101BD0001A650E4B1B681B6807F108021146184670
:101BE00017F002FEBB68002B03D0094B4FF0805268
:101BF0001A6000BF1837BD4680BD00BFD029032042
:101C0000102A032000000320B82A0320CC29032037
:101C100004ED00E080B584B000AF78603960002347
:101C2000FB600C4B1B6901330A4A13610A4B1B68AA
:101C30001B6807F10C021146184617F0D5FDFB682A
:101C4000002B03D0054B4FF080521A6000BF1037B5
:101C5000BD4680BD00000320C829032004ED00E03C
:101C600080B584B000AF78600023FB600C4BDB696B
:101C700001330B4AD3610B4B1B681B6807F10C0245
:101C80001146184617F0B0FDFB68002B03D0064B39
:101C90004FF080521A6000BF1037BD4680BD00BFB4
:101CA00000000320CC29032004ED00E080B582B0C1
:101CB00000AF786039601E49786808F009FA3B681F
:101CC00003F40033002B0BD0194BDB68002B03D13E
:101CD000184B00221A6003E0164B4FF000421A60C6
:101CE0003B6803F48023002B14D0114B1B69012B9C
:101CF00008D1104B1B79DBB243F00403DAB20D4B71
:101D00001A7107E00B4B1B79DBB223F00403DAB244
:101D1000084B1A713B6803F40023002B03D0054BDA
:101D2000012283F8202000BF0837BD4680BD00BFD8
:101D3000382A03200000032080B483B000AF78600D
:101D4000044A7B68136000BF0C37BD465DF8047B16
:101D5000704700BFC02A032080B485B000AF786010
:101D600039607B68FB604FF0FF33BB600EE0FB68BF
:101D70005A1CFA601B781A46BB685340DBB20A4A09
:101D800052F82320BB681B0A5340BB603B685A1EB5
:101D90003A60002BEBD1BB68DB4318461437BD46D5
:101DA0005DF8047B704700BFF8AF010880B483B0D2
:101DB00000AF7860044B00221A6000BF0C37BD46AC
:101DC0005DF8047B704700BFC42A032080B485B04F
:101DD00000AFF860B9607A6000BF1437BD465DF8A7
:101DE000047B704780B483B000AF7860054B1B68FC
:101DF0000133044A136000BF0C37BD465DF8047B15
:101E0000704700BFC42A032080B483B000AF78605D
:101E1000054B1B680133044A136000BF0C37BD46F5
:101E20005DF8047B704700BFC82A032080B582B0EC
:101E300000AF7860002016F015FC00BF0837BD46E3
:101E400080BD80B582B000AF7860002016F00AFC3B
:101E500000BF0837BD4680BD80B582B000AF786056
:101E6000002016F0FFFB00BF0837BD4680BD80B5DF
:101E700082B000AF7860002016F0F4FB00BF083796
:101E8000BD4680BD80B582B000AF78607B689B6E38
:101E90009BB2184604F017FE03461A467B68DA84A4
:101EA0007B68243304211846FFF756FF02467B68FF
:101EB0009A62044B1A687B681A6100BF0837BD46F6
:101EC00080BD00BF0000032080B400AF034B0022A0
:101ED0001A7000BFBD465DF8047B704754000320B4
:101EE00080B584B000AFF860B9607A607B681B8809
:101EF0009AB27B681A80BB68012B06D87B681B8866
:101F00009BB2DBB29AB27B681A80BB68002B00F0F0
:101F1000BA81FB68B3F5EA7F80F0B281FB68B3F564
:101F2000DC7F3CD2FB6840F2A712934200F08C8128
:101F3000FB68B3F5D47F80F0A381FB68B3F5A87F7D
:101F400000F09081FB68B3F5A87F00F29981FB68EF
:101F5000A22B00F06481FB68A22B00F29181FB6848
:101F6000982B00F05581FB68982B00F28981FB6863
:101F7000772B00F28581FB68582B51D2FB681A2B16
:101F800000F0E980FB681A2BC0F07A81FB68432BD4
:101F900000F27681FB68242B80F08A8070E1FB6878
:101FA000A3F5DC731B2B00F26B8101A252F823F026
:101FB00055220008812200088122000871220008B1
:101FC0008122000881220008812200088122000865
:101FD0008122000881220008812200088122000855
:101FE0008122000881220008812200088122000845
:101FF000812200083D220008812200088122000879
:102000008122000881220008812200088122000824
:102010008122000881220008812200082D22000868
:10202000FB68583B1F2B00F22B8101A252F823F0D2
:10203000C5210008812200088122000881220008B1
:1020400081220008812200088122000881220008E4
:102050008122000881220008AF21000881220008A7
:1020600081220008812200088122000881220008C4
:1020700081220008812200088122000881220008B4
:102080008122000801220008812200088122000824
:102090008122000881220008812200088122000894
:1020A000812200088122000881220008DB2100082B
:1020B000FB68243B1F2B00F2E38001A252F823F0BF
:1020C00041210008812200088122000881220008A5
:1020D0008122000881220008812200088122000854
:1020E0008122000881220008812200088321000843
:1020F0008122000881220008812200088122000834
:102100008122000881220008812200088122000823
:10211000812200086D210008812200088122000828
:102120008122000881220008812200088122000803
:1021300081220008812200088122000899210008DC
:102140007B681B889BB2184604F0BDFC03461A4608
:102150004F4B1A8097E07B681B889BB2184604F0AF
:10216000B2FC03461A464A4B5A808CE07B681B88B7
:102170009BB2184604F0A7FC03461A46444B9A80CB
:1021800081E07B681B889BB2184604F09CFC0346E8
:102190001A463F4BDA8076E07B681B889BB2184674
:1021A00004F091FC03461A46394B9A826BE07B6837
:1021B0001B889BB2184604F086FC03461A46344B33
:1021C0001A8160E07B681B889BB2184604F07BFC98
:1021D00003461A462E4B5A8155E07B681B889BB2FA
:1021E000DAB22B4B1A73BB68012B4BD97B681B8867
:1021F0009BB21B0A9BB2DAB2254B83F8202041E048
:102200007B681B889BB2DBB29AB2214BDA813AE041
:102210007B681B889BB2DAB21D4B9A7533E07B68F2
:102220001B889BB2DAB21A4BDA752CE07B681B88EC
:102230009BB2DBB29AB2164B1A8224E07B681B88F1
:102240009AB2134B5A821EE07B681B889AB2104BDD
:102250005A8318E07B681B889BB2DBB29AB20C4BA6
:102260009A8310E07B681B889AB2094B1A830AE0B4
:102270007B681B889BB2DBB29AB2054BDA8302E023
:1022800000BF00E000BF00BF1037BD4680BD00BFEB
:102290005800032080B584B000AF78600023FB8134
:1022A00031E0FB891C4A52F82330DB6E7A68D21A7F
:1022B000FB89194951F823305B6E9A4220D3FB8980
:1022C000154A52F823301846FFF7DCFDFB89124A05
:1022D00052F823301846FB890F4A52F82330243332
:1022E0001946FFF779FBFB890B4A52F823309A6EA7
:1022F00001329A66FB89084A52F823307A68DA6616
:10230000FB890133FB81FB89042BCAD900BF00BFC5
:102310001037BD4680BD00BF7C00032080B584B06F
:1023200000AFF860B9607A603B600C4ABB6813602C
:102330000B4A7B6813600B4A3B6813600A4ABB690F
:10234000136000F063F8F86803F0A4FFF86804F085
:1023500095FD002318461037BD4680BDCC2A0320CA
:10236000D02A0320D42A0320D82A032080B584B0A1
:1023700000AF78600023FB73786803F09FFF03468B
:102380001A46FB7B1343FB73786804F083FD034616
:102390001A46FB7B1343FB73FB7B18461037BD4685
:1023A00080BD000080B584B000AFF860B9607A608D
:1023B000134B1B687A68B968F86803F0B1FF0346ED
:1023C000012B07D10F4B1B68186800230222002144
:1023D00017F0ACF80C4B1B687A68B968F86804F021
:1023E00095FD0346012B07D1064B1B681868002397
:1023F0000222002117F09AF800BF1037BD4680BDB9
:10240000D02A0320CC2A0320D82A032080B582B00A
:1024100000AF0023FB713B461946102000F0E9F89D
:102420000346002B08D00021102000F0BEF8034620
:10243000002B01D00123FB71FB7918460837BD46FC
:1024400080BD80B582B000AF3B46184600F080F8F2
:102450000346002B12D13B68002B0CD0002110202A
:1024600000F0A3F80346002B02D00123FB7107E024
:102470000023FB7104E00023FB7101E00123FB71E9
:10248000FB7918460837BD4680BD80B584B000AFE3
:10249000786039600123FB730023BB6007F10803F8
:1024A0001946102000F0A5F80346002B10D1BB6898
:1024B0007A689A420CD27B689BB211339BB239681E
:1024C000184600F096F80346002B01D10023FB7359
:1024D000FB7B18461037BD4680BD000080B584B038
:1024E00000AF78600023BB600123FB73174B1B78A0
:1024F000002B02D10023FB7322E007F108031946E9
:10250000102000F076F80346002B19D1BB68113378
:10251000FF2B15D8BB689BB211339BB27968184664
:1025200000F043F80346002B0AD1BB68013319467B
:10253000102000F03AF80346002B01D10023FB7372
:10254000FB7B18461037BD4680BD00BF90000320BE
:1025500080B584B000AF78600023FB7379681020E9
:1025600000F047F80346002B01D00123FB73FB7BEF
:1025700018461037BD4680BD80B582B000AF00233D
:10258000FB8008F0AFF9002010F056FE0346FB80F8
:10259000FB88002B02D0002011F04CFF08F0C4F99A
:1025A000FB8818460837BD4680BD80B584B000AFB3
:1025B00003463960FB800023FB8108F093F9FB8818
:1025C0003968184612F061F80346FB81FB8903F471
:1025D0008073002B06D012F073F803461A46FB896D
:1025E0001343FB8108F0A0F9FB8918461037BD465C
:1025F00080BD80B584B000AF03463960FB80002306
:10260000FB81FB883968184612F01AF803461A460F
:10261000FB891343FB81FB8918461037BD4680BDFB
:1026200080B483B000AF78600B46FB701346BB707C
:10263000FB7803F00103002B02D07B6800221A70A4
:10264000FB7803F00203002B04D07B6803F5805372
:1026500003221A7400BF0C37BD465DF8047B704737
:1026600080B586B000AFF8600B467A60FB727B687D
:102670001B7803F00F03FB75FB681B78002B04D05D
:1026800006220121F868FFF7CBFFFB7D002B17D056
:10269000FB7D072B14D8FA7DFB7A013B9A420FD8B9
:1026A000FB6803F10D007B680133FA7D194604F0E5
:1026B000EBF9FB7D9AB2FB685A80FB6802221A7024
:1026C00000BF1837BD4680BD80B584B000AFF8604C
:1026D0000B467A60FB72FB681B78002B04D0062245
:1026E0000121F868FFF79CFFFB7A072B43D97B6831
:1026F0001B781BB21B021BB203F470631AB27B6817
:1027000001331B781BB213431BB29AB2FB689A8049
:10271000FB689B88072B2ED9FB689B88B3F5805FED
:102720001CD8FB6803F10D007B68023306221946B2
:1027300004F0AAF9FB6806225A80FB6801221A708D
:10274000FB6803F5005300229A77FB6801221A7395
:10275000FB6803F580530122DA810CE0FB6803F586
:10276000005302229A77FB6801221A730722012183
:10277000F868FFF755FF00BF1037BD4680BD80B534
:1027800086B000AFF8600B467A60FB72FB681B787E
:10279000012B75D17B681B7803F00F03FB75FB7D64
:1027A0009AB2FB6803F58053DB8903F00F039BB2F9
:1027B0009A4205D004220121F868FFF731FF60E05A
:1027C000FB689A88FB685B88D31ABB82BB8A072B9D
:1027D00002D9FB7A082B54D1BB8A072B04D8FB7A89
:1027E0009BB2BA8A9A424CD2FB6803F58053DB89CC
:1027F00001339AB2FB6803F58053DA81BB8A062B5A
:1028000002D8BB8ADBB202E0FB7A013BDBB2FB748D
:10281000FB685B880833FA681344581D7B680133F2
:10282000FA7C194604F030F9FB685A88FB7C9BB2AD
:1028300013449AB2FB685A80FB685A88FB689B88ED
:102840009A4203D1FB6802221A701AE0FB6803F572
:102850000053DB7F002B14D0FB6803F58053DB892A
:10286000013BFA6802F50052D27F93FBF2F101FBC3
:1028700002F29B1A002B04D1FB6801221A7300E0BC
:1028800000BF1837BD4680BD80B584B000AFF8608A
:102890000B467A60FB727B681B7803F00F03DAB299
:1028A000FB6803F5005383F82120FB7A012B08D93C
:1028B0007B6801331A78FB6803F5005383F8222004
:1028C00005E0FB6803F50053002283F82220FB7A21
:1028D000022B08D97B6802331A78FB6803F5005392
:1028E00083F8232005E0FB6803F50053002283F8FA
:1028F0002320FB6803F5005393F82130022B24D0EA
:10290000022B28DC002B02D0012B0CD023E0FB682B
:1029100003F580531B7C022B23D1FB6803F5805306
:1029200001221A741DE0FB6803F580531B7C022B07
:1029300005D0FB6803F580531B7C012B13D1FB688A
:1029400003F5805302221A740DE008220221F86870
:10295000FFF766FE08E005220221F868FFF760FE37
:1029600002E000BF00E000BF00BF1037BD4680BDE1
:1029700080B485B000AF786039607B6800221A703F
:102980007B6800225A807B6800229A807B68002244
:102990001A737B6800229A607B6803F580530022DB
:1029A0001A747B6803F5805300225A827B6803F512
:1029B000805300229A827B6803F580531A460023D5
:1029C00093617B6803F50053002283F821207B6824
:1029D00003F50053002283F822207B6803F500539F
:1029E000002283F823207B6803F5005300229A77A6
:1029F0007B6803F500530022DA777B6803F5005308
:102A0000002283F820207B6803F580530022DA81BE
:102A10007B6803F5005300229A837B6803F500531B
:102A20001A463B6853620023FB6008E07A68FB6843
:102A300013440D3300221A70FB680133FB60FB68FE
:102A4000B3F5805FF2D30023BB600AE07A68BB680D
:102A5000134403F580531C3300221A70BB68013302
:102A6000BB60BB68B3F5805FF0D300BF00BF143715
:102A7000BD465DF8047B704790B589B000AFF86043
:102A80007A603B600B46FB72FB683A689A60FB7A9F
:102A9000002B2ED07B681B781B09DBB2032B27D8B9
:102AA00001A252F823F000BFB92A0008C72A000883
:102AB000D52A0008E32A0008FB7A7A681946F868E4
:102AC000FFF7CEFD15E0FB7A7A681946F868FFF744
:102AD000FBFD0EE0FB7A7A681946F868FFF74FFEB7
:102AE00007E0FB7A7A681946F868FFF7CDFE00E048
:102AF00000BFFB681B7B012B1BD107F1140207F100
:102B00001F031946F86800F019F8FA7FFB6803F50F
:102B100000535C6A104603F08DFF0346E360FB68D8
:102B200003F500535B6A07F1140211461846FEF7DD
:102B300053FF00BF2437BD4690BD00BF80B487B0AF
:102B400000AFF860B9607A600023FB75FB681B7BFF
:102B5000002B1FD0FB6803F500539B7F43F030032D
:102B6000DAB27B681A707B680133FA6802F50052AA
:102B7000D27F1A707B680233FA6802F5005292F82D
:102B800020201A70BB6803221A700123FB75FB68B2
:102B900000221A73FB7D18461C37BD465DF8047B86
:102BA000704780B586B000AFF860B9607A603B606E
:102BB0000023FB75FB6803F580531B7C012B40F061
:102BC0001381FB6803F5005393F82330BB75BB7D7D
:102BD000F02B01D90123BB75FB6803F580539B697A
:102BE0003A68D21ABB7D9A42C0F0FE80FB6803F5BA
:102BF00080535B8A002B6AD1FB6803F580539B8A64
:102C0000072B2FD8FB6803F580539B8ADAB27B68C9
:102C10001A707B68581CFB6803F580531C33FA68F4
:102C200002F58052928A194603F02EFFFB6803F5E5
:102C300080539B8ADBB20133DAB2BB681A70FB683F
:102C400003F580539A8AFB6803F580535A82FB6828
:102C500003F5005301229A83FB6803F58053032296
:102C60001A74B9E0FB6803F580539B8A1B0A9BB278
:102C70005BB203F00F035BB243F010035BB2DAB256
:102C80007B681A70FB6803F580539A8A7B6801336E
:102C9000D2B21A707B68981CFB6803F580531C3312
:102CA0000622194603F0F0FEBB6808221A70FB6882
:102CB00003F5805306225A82FB6803F50053012274
:102CC0009A83FB6803F5805302221A7484E0FB6840
:102CD00003F580539A8AFB6803F580535B8AD31A05
:102CE000BB82FB6803F500539B8B5BB203F00F03C1
:102CF0005BB243F020035BB2DAB27B681A70BB8A26
:102D0000072B39D97B68581CFB6803F580535B8A15
:102D100003F580531833FA68134404330722194625
:102D200003F0B2FEBB6808221A70FB6803F58053FB
:102D30005B8A07339AB2FB6803F580535A82FB68BB
:102D400003F5005393F82230002B3BD0FB6803F5CA
:102D500000539B8BFA6802F5005292F8222093FBF5
:102D6000F2F101FB02F29B1A002B2BD1FB6803F559
:102D7000805302221A7425E07B68581CFB6803F517
:102D800080535B8A03F580531833FA681344043385
:102D9000BA8A194603F078FEBB8ADBB20133DAB295
:102DA000BB681A70FB6803F580535A8ABB8A1344C8
:102DB0009AB2FB6803F580535A82FB6803F580538F
:102DC00003221A74FB6803F500539B8B01339AB2FC
:102DD000FB6803F500539A830123FB75FB6803F539
:102DE00080531A463B689361FB7D18461837BD46F1
:102DF00080BD000080B584B000AF786039607B682A
:102E00001B78012B0DD17B689B683A68D31AFB6055
:102E1000FB68064A934204DD032201217868FFF72C
:102E2000FFFB002318461037BD4680BD400D030050
:102E300080B598B000AFF860B9607A60002387F879
:102E40005F30FB6803F580531B7C012B05D0FB68CA
:102E500003F580531B7C022B0FD1FB6803F58053D5
:102E60009B69BA68D31ABB65BB6D1E4A934204D9ED
:102E700002220221F868FFF7D3FB07F1140207F1E1
:102E80005701BB68F868FFF78CFE0346002B14D08F
:102E900097F85730184603F0CDFD02467B68DA609C
:102EA00002E0012003F026FE07F1140319467868BA
:102EB000FEF792FD0346002BF3D1FB6803F5805328
:102EC0001B7C032B07D1012387F85F30FB6803F5D8
:102ED000805300221A7497F85F3018466037BD4659
:102EE00080BD00BF400D030080B584B000AF7860A6
:102EF00039600123FB737B6803F580539B8AB3F52C
:102F0000805F21D87B6803F580531B7C002B04D0A5
:102F1000012202217868FFF783FB7B6803F5805369
:102F200000225A827B6803F5005300229A837B6853
:102F300003F580531A463B6893617B6803F5805321
:102F400001221A740023FB73FB7B18461037BD4621
:102F500080BD80B485B000AFF860B9607A60FB7066
:102F6000BB687F221A70BB680133FA6812781A7046
:102F7000BB680233FA781A707B6803221A8000BF9C
:102F80001437BD465DF8047B7047000080B586B0FD
:102F900000AFF8607A603B600B467B817B89022B37
:102FA00006D012233A687968F868FFF7D2FFF0E399
:102FB000FB681B784033DAB27B681A70FB685A1CD6
:102FC0007B68013312781A70FB6801331B789E2BE3
:102FD00000F2D88301A252F823F000BF5932000852
:102FE0008132000885370008C5320008DD3200084C
:102FF000ED320008FD3200080D3300088537000867
:103000008537000885370008853700081D3300081C
:103010004933000863330008733300088333000822
:103020009B33000885370008AB330008853700085C
:10303000BB3300088537000885370008853700084E
:10304000853700088537000885370008D333000826
:103050008537000885370008E33300081934000875
:103060004134000885370008853700088537000897
:103070008537000885370008853700088537000840
:103080008537000885370008853700088537000830
:10309000853700085934000885370008693400086E
:1030A000793400088537000891340008A1340008FD
:1030B0008537000885370008853700088537000800
:1030C000853700088537000885370008C9340008AF
:1030D00085370008E134000885370008F934000816
:1030E00085370008213500083935000851350008BA
:1030F00069350008793500088935000885370008EA
:1031000099350008B135000885370008D535000825
:10311000ED350008053600088537000885370008BA
:103120001D360008853700088537000885370008F8
:103130002D3600083D360008853700088537000821
:10314000853700088537000885370008853700086F
:103150008537000885370008853700084D36000898
:103160008537000875360008853600088537000861
:10317000853700088537000885370008853700083F
:103180009D36000885370008853700088537000818
:10319000853700088537000885370008853700081F
:1031A000853700088537000885370008853700080F
:1031B00085370008853700088537000885370008FF
:1031C00085370008853700088537000885370008EF
:1031D000853700088537000885370008DD36000888
:1031E00085370008853700088537000885370008CF
:1031F000853700088537000805370008853700083F
:1032000085370008853700088537000885370008AE
:1032100085370008353700088537000885370008EE
:10322000853700088537000885370008853700088E
:10323000853700088537000885370008853700087E
:10324000853700088537000885370008853700086E
:10325000453700086D3700083B6806221A807B68F6
:103260000233BE221A707B6803331F221A707B68F8
:103270000433A8221A707B68053313221A7088E27F
:1032800007F114031846FFF763F90346002B01D03A
:1032900000237B613B6806221A807B69DAB27B6877
:1032A000023302F07F02D2B21A707B68033300222D
:1032B0001A707B68043300221A707B680533002281
:1032C0001A7066E23B6804221A807B68023302228D
:1032D0001A707B68033300221A705AE23B6803229B
:1032E0001A807B6802334C221A7052E23B68032238
:1032F0001A807B68023374221A704AE23B68032208
:103300001A807B6802337E221A7042E23B680322F5
:103310001A807B68023388221A703AE23B680422E2
:103320001A80A94B9B889BB2DB001A127B68023380
:10333000D2B21A70A44B9B889BB2DAB27B6803337B
:10334000D200D2B21A7024E23B6803221A809E4B4C
:103350009B8A9BB21B0A9AB27B680233D2B21A7064
:1033600017E23B6803221A807B6802338A221A70B4
:103370000FE23B6803221A807B6802338A221A70AC
:1033800007E23B6804221A807B68023300221A702D
:103390007B68033327221A70FBE13B6803221A8003
:1033A0007B68023300221A70F3E13B6803221A8023
:1033B0007B68023303221A70EBE13B6804221A8017
:1033C0007B68023300221A707B680333FF221A7075
:1033D000DFE13B6803221A807B6802330A221A70FD
:1033E000D7E13B6804221A8015F024FB0346774A94
:1033F000A2FB03239B091A0A7B680233D2B21A701C
:1034000015F018FB0346714AA2FB03239A097B6857
:103410000333D2B21A70BCE13B6806221A807B6883
:10342000023380221A707B68033305221A707B688E
:103430000433B0221A707B68053315221A70A8E194
:103440003B6804221A807B68023300221A707B6872
:10345000033300221A709CE13B6803221A807B68C8
:10346000023300221A7094E13B6803221A807B68C1
:10347000023300221A708CE13B6804221A807B68B8
:10348000023300221A707B68033300221A7080E135
:103490003B6803221A807B68023364221A7078E149
:1034A0003B6806221A807B6802338C221A707B6884
:1034B000033392221A707B68043380221A707B686F
:1034C000053323221A7064E13B6804221A807B686A
:1034D000023313221A707B6803338A221A7058E170
:1034E0003B6804221A807B6802330B221A707B68C7
:1034F000033339221A704CE13B6806221A807B683C
:1035000002337E221A707B680333DC221A707B68D8
:1035100004338C221A707B68053301221A7038E15B
:103520003B6804221A807B68023335221A707B685C
:103530000333BF221A702CE13B6804221A807B6897
:10354000023300221A707B68033300221A7020E1D4
:103550003B6804221A807B68023380221A707B68E1
:10356000033313221A7014E13B6803221A807B682C
:10357000023300221A700CE13B6803221A807B6838
:10358000023351221A7004E13B6803221A807B68DF
:10359000023300221A70FCE03B6803221A800C4BB5
:1035A0005B881B099AB27B680233D2B21A70F0E0D2
:1035B0003B6803221A80064B5B881B099AB27B6822
:1035C0000233D2B21A70E4E058000320D34D6210E7
:1035D000A00003203B6803221A80704B5B881B0904
:1035E0009AB27B680233D2B21A70D2E03B680422EE
:1035F0001A807B68023300221A707B680333002232
:103600001A70C6E03B6804221A807B6802330022ED
:103610001A707B68033300221A70BAE03B680322F9
:103620001A807B68023301221A70B2E03B680322E1
:103630001A807B68023380221A70AAE03B6803225A
:103640001A807B68023380221A70A2E03B6806224F
:103650001A807B68023360221A707B6803338022F1
:103660001A707B68043300221A707B6805330122CC
:103670001A708EE03B6803221A807B6802337D2239
:103680001A7086E03B6804221A807B6802330022AD
:103690001A707B68033393221A707AE03B68092220
:1036A0001A807B68023369221A707B680333012217
:1036B0001A707B68043300221A707B68053300227D
:1036C0001A707B68063300221A707B680733002269
:1036D0001A707B68083300221A705AE03B68062291
:1036E0001A807B68023302221A707B68033304223B
:1036F0001A707B68043300221A707B6805330C2231
:103700001A7046E03B6807221A807B680233012268
:103710001A707B6803330C221A707B68043395227D
:103720001A707B68053300221A707B68063300220A
:103730001A702EE03B6803221A807B6802338022D5
:103740001A7026E03B6806221A807B68023300224A
:103750001A707B68033300221A707B6804330022DE
:103760001A707B68053300221A7012E03B6804224D
:103770001A807B68023300221A707B6803330022B0
:103780001A7006E012233A687968F868FFF7E1FBDF
:1037900000BF00BF1837BD4680BD00BFA00003209A
:1037A00080B588B000AFF8607A603B600B467B81E3
:1037B0007B89012B06D012233A687968F868FFF7F5
:1037C000C8FB4DE007F118031846FEF7C1FE03469B
:1037D000002B06D010233A687968F868FFF7B9FB28
:1037E0003EE0BB6901339BB25B009AB23B681A8032
:1037F000FB681B784033DAB27B681A70BA697B6861
:103800000133D2B21A7026E0FB8B07F11402114685
:103810001846FEF73AFE0346002B07D010233A68FD
:103820007968F868FFF795FB00BF19E07B69190E0E
:10383000FB8B01335B007A681344CAB21A707B6950
:10384000190CFB8B5B0003337A681344CAB21A70FD
:10385000FB8B0133FB83FA8BBB69DBB29A42D3D378
:1038600000BF2037BD4680BD80B584B000AFF86092
:103870007A603B600B467B817B89012B06D012234B
:103880003A687968F868FFF764FB14E0FEF7D9FD41
:103890000346002B06D010233A687968F868FFF7D2
:1038A00058FB08E0FB681B784033DAB27B681A707B
:1038B0003B6801221A8000BF1037BD4680BD000062
:1038C000B0B586B000AFF8607A603B600B467B8194
:1038D0007B89022B06D012233A687968F868FFF7D3
:1038E00038FBD5E0FB681B784033DAB27B681A708E
:1038F000FB685A1C7B68013312781A70FB6801332D
:103900001B780A2B00F2BC8001A252F823F000BF02
:103910003D390008813A000865390008813A0008FD
:10392000FB390008813A00081F3A0008813A000874
:10393000813A0008813A00084F3A00087B68023358
:1039400054221A707B68033340221A707B68043358
:1039500000221A707B68053300221A703B68062229
:103960001A8095E07B68023301221A703B681422AA
:103970001A800023FB827B68033319460120FEF77F
:1039800038FE03461A46FB8A1343FB827B680733E3
:1039900019460220FEF72DFE03461A46FB8A134302
:1039A000FB827B680B3319460320FEF722FE034699
:1039B0001A46FB8A1343FB827B680F3319460420A7
:1039C000FEF717FE03461A46FB8A1343FB827B6809
:1039D000133319460520FEF70CFE03461A46FB8AF0
:1039E0001343FB82FB8A002B51D07B6803331122E7
:1039F0000021184617F0BEF849E07B680233012227
:103A00001A707B680333244A1C4615460FCD20608C
:103A10006160A260E3603B6813221A8038E07B6833
:103A2000023301221A707B68033312221A707B68FA
:103A3000043334221A707B68053356221A707B686F
:103A4000063378221A703B6807221A8020E07B68D0
:103A5000023301221A707B680333142200211846B6
:103A600002F0F4FF7B6803330C4A1C4615460FCD69
:103A700020606160A260E3603B6817221A8007E063
:103A800012233A687968F868FFF763FA00E000BF2C
:103A900000BF1837BD46B0BDF8AD010808AE01083B
:103AA00080B584B000AFF8607A603B600B467B81E4
:103AB000FB681B78013B092B32D801A252F823F096
:103AC000E93A0008213B0008F73A0008053B0008E6
:103AD000213B0008213B0008F73A0008213B000881
:103AE000133B0008F73A000879893B687A68F86860
:103AF000FFF74CFA24E079893B687A68F868FFF7A9
:103B00004FFE1DE079893B687A68F868FFF7ACFEE4
:103B100016E079893B687A68F868FFF7D1FE0FE014
:103B20007B687F221A707B680133FA6812781A70FA
:103B30007B68023311221A703B6803221A8000BF8F
:103B4000002318461037BD4680BD00BF80B58AB03F
:103B500000AF3B1D184607F0A1F8FB6903F4801382
:103B6000002B01D0012300E0022318462837BD4670
:103B700080BD80B588B000AF78600023FB61022370
:103B8000FB607B683B6100237B618023BB6107F1A5
:103B90001C0207F10C031146184606F0A7FF034666
:103BA00018462037BD4680BD80B485B000AF786030
:103BB00039600123FB733A687B689A4202D800237C
:103BC000FB7314E07B68B3F1006F03D37B680B4A8F
:103BD000934202D90023FB7309E03B68B3F1006F05
:103BE00003D93B68064A934201D90023FB73FB7B50
:103BF00018461437BD465DF8047B7047FFFF030885
:103C00000000040880B485B000AF786039600023FC
:103C1000FB733A687B689A4202D80023FB7309E081
:103C20007B68B3F1005F05D33B68064A934201D835
:103C30000123FB73FB7B18461437BD465DF8047BFC
:103C4000704700BF0000042080B485B000AF7860EA
:103C500039600023FB733A687B689A4202D80023DC
:103C6000FB7341E07B68B3F1005F06D33B68224AF7
:103C7000934202D80123FB7336E07B681F4A9342CC
:103C800006D93B681E4A934202D80123FB732BE0FE
:103C90007B681C4A934206D93B681B4A934202D870
:103CA0000123FB7320E07B68184A934206D93B68E6
:103CB000174A934202D80123FB7315E07B68B3F1E6
:103CC000006F11D33B68134A93420DD8124B1B88E7
:103CD000B3F5007F02D10123FB7305E03B680F4A77
:103CE000934201D80123FB73FB7B18461437BD4672
:103CF0005DF8047B704700BF00000420FFFFF90B54
:103D00000002FA0BFFFFF80B0080F90B3F20024086
:103D10004021024000000808E005FA0B00000408FA
:103D200080B58AB000AF3B1D184606F0B7FF7B692F
:103D3000AA2B01D1002300E0012318462837BD46F5
:103D400080BD80B58AB000AF002387F8273072B6F7
:103D500000BF3B46184606F0A1FF04233B604FF42A
:103D600000537B61BB6943F08063BB6106F0BAFD21
:103D700003461A4697F82730134387F8273097F8F9
:103D80002730002B37D106F0E9FD03461A4697F895
:103D90002730134387F8273097F82730002B2AD194
:103DA0003B46184606F012FF03461A4697F827309E
:103DB000134387F8273097F82730002B09D106F0F6
:103DC00007FE03461A4697F82730134387F8273033
:103DD00011E006F0E5FD03461A4697F82730134335
:103DE00087F8273006F0A0FD03461A4697F82730DB
:103DF000134387F8273062B600BF012318462837DF
:103E0000BD4680BD80B58AB000AF002387F827305B
:103E100006F068FD034687F8273006F09FFD03464D
:103E20001A4697F82730134387F827303B46184641
:103E300006F034FF04233B604FF480737B61BB6961
:103E400003F48013002B02D00023BB6102E04FF487
:103E50008013BB6197F82730002B17D13B461846DB
:103E600006F0B4FE03461A4697F82730134387F846
:103E7000273097F82730002B08D106F0A9FD03461C
:103E80001A4697F82730134387F8273006F088FD45
:103E900003461A4697F82730134387F8273006F071
:103EA00043FD03461A4697F82730134387F8273017
:103EB00097F82730002B01D1002300E0012318469A
:103EC0002837BD4680BD80B582B000AF06F00AFD40
:103ED0000346FB71FFF73AFE03461846FFF749FE1B
:103EE00003461A46FB791343FB7106F01DFD03469A
:103EF0001A46FB791343FB71FB79002B01D1002398
:103F000000E0012318460837BD4680BD80B584B067
:103F100000AF1D4B7B601D4B3B6006F0E3FC03468E
:103F2000FB737B68BB6019E0BB68D3E90023B3F186
:103F3000FF3F08BFB2F1FF3F0DD0BB6803F5802102
:103F4000BB68D3E90023084600F057F803461A4639
:103F5000FB7B1343FB73BB680833BB60BA683B68E9
:103F60009A42E1D306F0E0FC03461A46FB7B13437A
:103F7000FB73FB7B002B01D1002300E001231846DB
:103F80001037BD4680BD00BF00E0030800000408F4
:103F900080B586B000AF00233B6106F0A3FC03466A
:103FA000FB7502233B60FFF7D1FD0346012B01D1D6
:103FB000022300E001237B607C23BB600423FB60C1
:103FC00007F110023B461146184606F08FFD0346E6
:103FD0001A46FB7D1343FB7506F0A6FC03461A4602
:103FE000FB7D1343FB75FB7D002B01D1002300E01B
:103FF000012318461837BD4680BD80B586B000AF96
:10400000F860C7E90023D7E90023F968012006F02A
:1040100027FC0346FB75FB7D002B01D1002300E04C
:10402000012318461837BD4680BD80B485B000AF67
:104030000346FB800023FB73FB88B3F5506F02D36C
:104040000123FB7321E0FB88B3F5406F02D3032308
:10405000FB731AE0FB88B3F5306F02D30423FB73C4
:1040600013E0FB88B3F5206F02D30523FB730CE04C
:10407000FB88B3F5E06F02D30623FB7305E0FB88F2
:10408000B3F5807F01D80223FB73FB7B18461437FE
:10409000BD465DF8047B704780B582B000AF7860A4
:1040A0003B4B1A883B4B1A80394B5A88394B5A8004
:1040B000374B9B881846FFF7B8FF03461A46354B27
:1040C0001A71354B1B687A68D31A642B50D9324A5F
:1040D0007B6813602F4B1B79012B44D02F4B1B792E
:1040E000012B40D12B4B1B79022B10D1294B5B7933
:1040F000052B03D9274B5B79FF2B04D1254B5B792B
:104100000133DBB201E0234B5B79224A5371214B2F
:104110001B79032B0CD11F4B5B79062B04D81D4B4D
:104120005B79013BDBB201E01A4B5B79194A5371B1
:10413000184B1B79042B08D1164BDB8883F0010345
:104140009BB2DBB29AB2134BDA80124B1B79052B70
:1041500009D1104BDB8883F480739BB223F0FF03FB
:104160009AB20C4BDA800D4B0A4A07CA03C31A8075
:10417000084B1B79062B03D1064B01221A7202E071
:10418000044B00221A7200BF0837BD4680BD00BF35
:10419000DC2A0320A0000320E42A0320940003204B
:1041A00080B400AF034B00221A6000BFBD465DF82B
:1041B000047B7047E42A032080B582B000AF7860AA
:1041C0007868FFF769FF00BF0837BD4680BD000073
:1041D00080B400AF034B00221A7000BFBD465DF8EB
:1041E000047B7047E82A032080B483B000AF786076
:1041F000224B1B78002B07D0214B1B881F2B03D889
:104200001F4B5B881F2B08D91D4B1A881D4B1A802A
:104210001B4B5A881B4B9A8009E01A4B5B889AB259
:10422000184B1A80174BDB889AB2164B9A80134BA7
:104230001B78002B03D0124B5B79002B04D0104B62
:104240005A79104B1A7305E00E4BDB899BB2DAB238
:104250000C4B1A730A4B1A790A4B83F82020084B2F
:104260001A7A084B9A75064BDA88064B5A8300BFB8
:104270000C37BD465DF8047B704700BFE82A032079
:10428000A00003205800032080B483B000AF786002
:10429000044A7B68136000BF0C37BD465DF8047BA1
:1042A000704700BFEC2A032080B483B000AF786071
:1042B00000BF0C37BD465DF8047B704780B582B007
:1042C00000AF064B1B683A1D114618460BF09CFBCD
:1042D0007B6818460837BD4680BD00BFEC2A032026
:1042E00080B485B000AF78600B467B807B88002B64
:1042F00012D00023FB810BE0FB897A681A440B4B38
:104300001968FB890B4412781A70FB890133FB8111
:10431000FA897B889A42EFD3054B1B687A881A800A
:1043200000BF1437BD465DF8047B7047042B0320A3
:10433000082B032080B483B000AF78600B46FB707D
:104340000C4B1B687F221A700A4B1B6801337A687A
:1043500012781A70074B1B680233FA781A70064BF2
:104360001B6803221A8000BF0C37BD465DF8047B32
:10437000704700BF042B0320082B032080B485B0B6
:1043800000AF78600B467B807B681A78104B1B6807
:104390004032D2B21A700123FB810BE0FB897A68AC
:1043A0001A440B4B1968FB890B4412781A70FB896D
:1043B0000133FB81FA897B889A42EFD3054B1B6856
:1043C0007A881A8000BF1437BD465DF8047B7047B9
:1043D000042B0320082B032080B400AF054B1B7F68
:1043E000022B0CBF01230023DBB21846BD465DF84B
:1043F000047B70470C2B032080B483B000AF78603F
:104400007B6800221A607B6800225A607B68002269
:104410009A607B6800221A747B680022DA6000BF11
:104420000C37BD465DF8047B7047000080B584B052
:1044300000AF0346FB710023FB730C4B1B78022B70
:1044400007D0FB79002B01D07E2300E07F23FB7394
:1044500006E0FFF7C1FF0346012B01D03323FB73B6
:10446000FB7B18461037BD4680BD00BF0C2B0320D8
:1044700080B582B000AF7860094B01221A70094BF9
:1044800000225A73084B00221A700848FFF7B4FF45
:10449000034A7B68536000BF0837BD4680BD00BF3C
:1044A0000C2B0320F02A0320002B0320182B0320C1
:1044B00080B584B000AF78600B467B805023BB8111
:1044C0007B88022B04D013217868FFF733FF75E057
:1044D0007B6801331B7803F07F03032B1CD0032B75
:1044E00062DC012B02D0022B3AD05DE0354B5B68D9
:1044F0001846FFF7BDFF7B6801331B787B737B6831
:1045000001331B785BB2002B53DB07F10C03022154
:104510001846FFF7E5FE4CE02B4B9B8A9BB2B3F5A8
:10452000805F04D388217868FFF704FF43E0254BC0
:104530005B681846FFF79CFF224B03221A707B68CA
:1045400001331B787B737B6801331B785BB2002BD4
:1045500031DB07F10C0302211846FFF7C1FE2AE008
:10456000194B9B8A9BB2B3F5805F04D322217868F4
:10457000FFF7E0FE21E0134B5B681846FFF778FF7A
:10458000104B02221A707B6801331B787B737B68A7
:1045900001331B785BB2002B0FDB07F10C03022108
:1045A0001846FFF79DFE08E012217868FFF7C2FE6B
:1045B00004E000BF02E000BF00E000BF00BF103712
:1045C000BD4680BD0C2B03205800032080B582B06F
:1045D00000AF78600B467B807B88022B04D01321D0
:1045E0007868FFF7A7FE23E0134B1B78012B04D15B
:1045F0007F217868FFF79EFE1AE07B6801331B7805
:1046000003F07F03012B0DD17B8819467868FFF7F3
:10461000B5FE7B6801331B785BB2002B07DA04F030
:10462000C0FC04E012217868FFF784FE00E000BFC0
:1046300000BF0837BD4680BD0C2B032080B582B07B
:1046400000AF78600B467B807B88042B04D013215D
:104650007868FFF76FFE21E07B6801331B78FF2B42
:1046600009D17B6802331B78FF2B04D17B680333AD
:104670001B78FF2B04D031217868FFF75BFE0DE03B
:10468000FDF7DFFE0346002B04D072217868FFF7A8
:1046900051FE03E001217868FFF770FE00BF083784
:1046A000BD4680BD80B586B000AF78600B467B808C
:1046B0000023FB757B88022B04D813217868FFF751
:1046C00039FEC7E0654B1B6859221A707B685A1C7B
:1046D000624B1B68013312781A70604B1B680233FF
:1046E00004221A707B6801331B7803F07F03012BCF
:1046F00002D0022B2ED099E07B88032B04D013210B
:104700007868FFF717FE96E0544B1B6803330022CE
:104710001A7007F108031846FDF71AFF0346002B2D
:1047200004D072217868FFF705FE84E0BB681A0A9E
:104730004A4B1B680433D2B21A70BA68474B1B68E5
:104740000533D2B21A70454B1B6806211846FFF795
:10475000C7FD70E07B88032B04D013217868FFF736
:10476000E9FD68E03D4B1B68033300221A7007F136
:1047700008031846FDF7ECFE0346002B04D0722117
:104780007868FFF7D7FD56E000233B6135E007F17D
:104790000C0319463869FDF778FE0346002B02D05A
:1047A0000123FB7526E0FB68190E2C4B1A683B6948
:1047B0009B0003331344CAB21A70FB68190C274BD1
:1047C0001A683B6901339B001344CAB21A70FB6834
:1047D000190A224B1A683B699B0005331344CAB27D
:1047E0001A70F9681D4B1A683B699B000633134425
:1047F000CAB21A703B6901333B61BB683A699A429D
:10480000C5D3FB7D002B0CD1144B1A68BB689BB23F
:104810009B009BB203339BB219461046FFF760FD25
:1048200009E072217868FFF785FD04E012217868BD
:10483000FFF780FD00BF7B6801331B785BB2002B64
:1048400008DA064B1B681B787F2B03D0044B1B68D0
:1048500000221A8000BF1837BD4680BD042B0320FC
:10486000082B032080B588B000AF78600B467B80B2
:104870007B88012B04D813217868FFF75BFDA2E049
:104880007B6801331B7803F00F03042B04D0122143
:104890007868FFF74FFD96E07B6801331B7803F0E3
:1048A000F003402B04DD12217868FFF743FD8AE016
:1048B000474B1B78012B04D17F217868FFF73AFD25
:1048C00081E00023FB617B6801331B781B09FB74CB
:1048D0007A88FB7C06339A4204D013217868FFF76C
:1048E00029FD70E07B6802331B781A067B6803336E
:1048F0001B781B041A447B6804331B781B02134487
:104900007A68053212781344FB600023FB7614E0CA
:10491000FB7E06331A467B6813441B781946FA7CE3
:10492000FB7E0133D31ADB0001FA03F31A46FB695D
:104930001343FB61FB7E0133FB76FA7EFB7C9A42DC
:10494000E6D3FB6940F6FE72934204D931217868C0
:10495000FFF7F0FC37E0FA68FB6913441946F86882
:10496000FFF772F90346002B29D0FB6940F6FE726F
:10497000934224D87B681A78164B1B684032D2B217
:104980001A7000237B610EE0FA687B6913441946B4
:10499000104B1A687B69013313440A78D2B21A703B
:1049A0007B6901337B617A69FB699A42ECD3FB69CD
:1049B0009AB2094B1B68013292B21A8003E031218E
:1049C0007868FFF7B7FC00BF2037BD4680BD00BF49
:1049D0000C2B0320042B0320082B032080B592B05E
:1049E00000AF78600B467B807B88032B04D01321BB
:1049F0007868FFF79FFC25E17B6801331B781B0279
:104A00009BB27A68023212781344A7F8423007F159
:104A10002C0300221A605A609A60DA601A6100233F
:104A200087F847300023A7F84430B7F84230B3F591
:104A3000007F38D3B7F84230B3F5806F33D207F137
:104A40002C02B7F8423011461846FDF7D2FD034656
:104A5000A7F84430B7F84430002B1AD17B681B7894
:104A60004033DBB23B727B685B787B727B689B7800
:104A7000BB7207F12C0107F1080303330422184627
:104A800002F002F807F1080307211846FFF728FC97
:104A9000D7E0B7F84430002B00F0D380312178689C
:104AA000FFF748FCCDE0B7F84230A3F57143843BF3
:104AB0000C2B00F2A48001A252F823F0F14A000866
:104AC000FF4B00081D4B00082B4B0008FF4B000854
:104AD000FF4B0008FF4B0008FF4B0008434B00084A
:104AE000FF4B0008FF4B0008FF4B00085B4B000822
:104AF00007F1080303330C225449184601F0C4FFA0
:104B00002023FB7507F1080310330922504918468A
:104B100001F0BAFF192387F8473074E04D4B1B783A
:104B2000FB72042387F847306DE007F10803033375
:104B300004224949184601F0A7FF072387F84730A8
:104B400061E007F1080303330C224449184601F0E1
:104B50009BFF0F2387F8473055E007F12C031946D8
:104B60000120FDF746FD03461A46B7F844301343CB
:104B7000A7F8443007F12C03043319460220FDF74F
:104B800038FD03461A46B7F844301343A7F84430BB
:104B900007F12C03083319460320FDF72AFD0346CD
:104BA0001A46B7F844301343A7F8443007F12C03F2
:104BB0000C3319460420FDF71CFD03461A46B7F8CE
:104BC00044301343A7F8443007F12C03103319463F
:104BD0000520FDF70EFD03461A46B7F8443013438F
:104BE000A7F8443007F12C0107F108030333112221
:104BF000184601F049FF142387F8473003E00823E3
:104C0000A7F8443000BFB7F84430002B14D17B68BC
:104C10001B784033DBB23B727B685B787B727B68CE
:104C20009B78BB7297F847309AB207F10803114698
:104C30001846FFF755FB05E031217868FFF77AFB4E
:104C400000E000BF00BF4837BD4680BD18AE010878
:104C500024AE01080C2B032030AE01089005FA0B9E
:104C600080B582B000AF78600B467B8011217868F8
:104C7000FFF760FB00BF0837BD4680BD80B584B03C
:104C800000AF78600B467B8067233B727B68013303
:104C90001B7803F07F03DBB27B720023BB7200231F
:104CA000FB7200233B7300237B73FFF707FB034674
:104CB000164AD360154BDA68154B5340134A1361FB
:104CC000124BDB681B0EDBB2BB72104BDB681B0C9C
:104CD000DBB2FB720D4BDB681B0ADBB23B730B4B89
:104CE000DB68DBB27B73094B01221A777B680133E7
:104CF0001B785BB2002B05DB07F108030621184681
:104D0000FFF7EEFA00BF1037BD4680BD0C2B032025
:104D10007856341280B584B000AF78600B467B8043
:104D200067233B727B6801331B7803F07F03DBB2A0
:104D30007B727B6802331B781A067B6803331B780F
:104D40001B041A447B6804331B781B0213447A68E3
:104D5000053212781344FB60234B9B69042B04D962
:104D600036217868FFF7E6FA39E01F4B5A681E4B88
:104D70005B69D31A092B04D837217868FFF7DAFA70
:104D80002DE0194B1B7F012B04D024217868FFF7FD
:104D9000D1FA24E0144B1B69FA689A420FD1124BE6
:104DA00002221A777B6801331B785BB2002B16DB7B
:104DB00007F1080302211846FFF792FA0FE00A4BA9
:104DC00000221A77084B9B690133074A9361064B0F
:104DD0005B68054A536135217868FFF7ABFA00BF7D
:104DE0001037BD4680BD00BF0C2B032080B582B0BC
:104DF00000AF78600B467B807B88012B04D81321A1
:104E00007868FFF797FA22E07B6801331B7803F09C
:104E10007F03012B02D0022B06D013E07B881946BA
:104E20007868FFF72BFF12E07B88062B04D0132154
:104E30007868FFF77FFA0AE07B8819467868FFF701
:104E400069FF04E012217868FFF774FA00BF00BF21
:104E50000837BD4680BD80B582B000AF78600B4694
:104E60007B8011217868FFF765FA00BF0837BD46DF
:104E700080BD80B582B000AF78600B467B80112189
:104E80007868FFF757FA00BF0837BD4680BD80B588
:104E900082B000AF78600B467B8011217868FFF705
:104EA00049FA00BF0837BD4680BD80B582B000AF6B
:104EB00078600B467B8011217868FFF73BFA00BFD2
:104EC0000837BD4680BD000080B586B000AF786071
:104ED0000B467B807B88022B04D813217868FFF770
:104EE00029FAECE07B6801331B781B029BB27A68DD
:104EF000023212781344BB820023FB82724B1B7870
:104F0000022B04D07F217868FFF714FAD7E0BB8A20
:104F10004FF28412934204D0BB8A4FF28C12934218
:104F200004D131217868FFF705FAC8E0BB8A4FF257
:104F30009012934202D07B88072B07D1BB8A4FF295
:104F40009012934207D17B88142B04D013217868E8
:104F5000FFF7F0F9B3E0BB8A4FF2901293421AD0F8
:104F60007B6803331B781A067B6804331B781B04A9
:104F70001A447B6805331B781B0213447A68063297
:104F8000127813443B61BB8A39691846FDF70DFB63
:104F90000346FB8277E07B6806331B781A067B6842
:104FA00005331B781B041A447B6804331B781B02EF
:104FB00013447A6803321278134419460120FDF72E
:104FC000F4FA03461A46FB8A1343FB827B680A33D2
:104FD0001B781A067B6809331B781B041A447B680C
:104FE00008331B781B0213447A6807321278134483
:104FF00019460220FDF7D9FA03461A46FB8A1343E5
:10500000FB827B680E331B781A067B680D331B7896
:105010001B041A447B680C331B781B0213447A6808
:105020000B321278134419460320FDF7BEFA0346EB
:105030001A46FB8A1343FB827B6812331B781A06DD
:105040007B6811331B781B041A447B6810331B7870
:105050001B0213447A680F32127813441946042055
:10506000FDF7A3FA03461A46FB8A1343FB827B68CB
:1050700013331B7819460520FDF797FA03461A46A5
:10508000FB8A1343FB82FB8A002B04D072217868D1
:10509000FFF750F913E07B681B784033DBB23B73BA
:1050A0007B6801331B787B737B6802331B78BB738F
:1050B00007F10C0303211846FFF712F9FFE700BFC1
:1050C0001837BD4680BD00BF0C2B032080B582B0D1
:1050D00000AF78600B467B8011217868FFF72AF9D2
:1050E00000BF0837BD4680BD80B584B000AF786092
:1050F0000B467B807B88042B04D013217868FFF754
:1051000019F927E07B6801331B78012B1DD10120A1
:10511000FFF78CF90346FB73FB7B002B0FD1FEF7E7
:10512000D2FE0346002B04D072217868FFF702F903
:1051300010E07B8819467868FFF720F90AE0FB7BCE
:1051400019467868FFF7F6F804E012217868FFF74F
:10515000F1F800BF00BF1037BD4680BD80B584B0F8
:1051600000AF78600B467B807B88042B04D0132132
:105170007868FFF7DFF830E07B6801331B78012B9C
:1051800026D10120FFF752F90346FB73FB7B002B6E
:1051900018D1144B5B7B042B0FD1FEF733FE034673
:1051A000002B04D072217868FFF7C4F815E07B88E3
:1051B00019467868FFF7E2F80FE022217868FFF7D8
:1051C000B9F80AE0FB7B19467868FFF7B3F804E00A
:1051D00012217868FFF7AEF800BF00BF1037BD4658
:1051E00080BD00BFF02A032080B582B000AF786098
:1051F0000B467B807B88042B04D013217868FFF753
:1052000099F81EE07B6801331B78012B02D0022B3A
:1052100009D011E00D4B01221A707B88194678687D
:10522000FFF7ACF80DE0094B00221A707B88194695
:105230007868FFF7A3F804E012217868FFF77AF89E
:1052400000BF00BF0837BD4680BD00BF540003202B
:1052500080B584B000AF78600B467B807B88042BE0
:1052600004D013217868FFF765F835E00020FFF7D8
:10527000DDF80346BB73BB7B002B05D0BB7B194617
:105280007868FFF757F827E00023FB737B6801334A
:105290001B78012B1BD1FEF743FD0346002B04D1E5
:1052A000FEF74FFD0346FB7303E015F055FD034683
:1052B000FB73FB7B002B04D072217868FFF73AF870
:1052C0000AE07B8819467868FFF758F804E0122155
:1052D0007868FFF72FF800BF00BF1037BD4680BDCC
:1052E00080B584B000AF78600B467B807B88042B50
:1052F00004D013217868FFF71DF827E00020FFF79E
:1053000095F80346FB73FB7B002B05D0FB7B19460E
:105310007868FFF70FF819E07B6801331B78012BE1
:105320000FD1FEF76FFD0346002B04D07221786881
:10533000FFF700F80AE07B8819467868FFF71EF847
:1053400004E012217868FEF7F5FF00BF00BF1037B8
:10535000BD4680BD80B586B000AF78600B467B80CF
:105360007B880B2B04D813217868FEF7E3FF76E0E7
:105370007B6804331B781A067B6805331B781B0493
:105380001A447B6806331B781B0213447A68073281
:10539000127813447B617B6808331B781A067B689C
:1053A00009331B781B041A447B680A331B781B02E1
:1053B00013447A680B32127813443B617A693B6973
:1053C0001344FB60F9687869FEF73EFC0346002B46
:1053D00004D131217868FEF7ADFF40E07B6939697F
:1053E0001846FCF7B9FCB8607B681A781E4B1B683E
:1053F0004032D2B21A707B685A1C1B4B1B680133B7
:1054000012781A707B689A1C174B1B68023312784B
:105410001A707B68DA1C144B1B68033312781A70FD
:10542000BB681A0E104B1B680433D2B21A70BB68EB
:105430001A0C0D4B1B680533D2B21A70BB681A0ADE
:10544000094B1B680633D2B21A70074B1B6807332F
:10545000BA68D2B21A70054B1B6808221A8000BFC6
:105460001837BD4680BD00BF042B0320082B032046
:1054700080B582B000AF78600B467B807B88042BC0
:1054800004D013217868FEF755FF1EE07B680133D6
:105490001B78012B02D0022B09D011E00D4B012209
:1054A0001A707B8819467868FEF768FF0DE0094B93
:1054B00000221A707B8819467868FEF75FFF04E0C7
:1054C00012217868FEF736FF00BF00BF0837BD46DF
:1054D00080BD00BFE82A032080B584B000AF7860AB
:1054E0000B467B807B88082B04D013217868FEF75D
:1054F00021FF36E07B6801331B78012B2CD17B68C0
:1055000007331B78042B04D031217868FEF712FF93
:1055100027E07B6804331B781A067B6805331B7809
:105520001B041A437B6806331B781B0213437A68FB
:10553000073212781343FB60F868FCF7CFFF03468D
:10554000002B04D104217868FEF718FF09E07221CE
:105550007868FEF7EFFE04E012217868FEF7EAFEB5
:1055600000BF00BF1037BD4680BD80B584B000AF1E
:1055700078600B467B80FEF72FFF0346012B0FD18F
:105580007B680533FB60BFF34F8F00BFBFF36F8FA6
:1055900000BFFB68984704217868FEF7EFFE03E040
:1055A00033217868FEF7C6FE00BF1037BD4680BDC8
:1055B00080B584B000AF78600B467B807B88032B7E
:1055C00004D813217868FEF7B5FE21E10023FB73B0
:1055D0007B6801331B785BB2002B0ADA0123FB7373
:1055E0007B6801331A787B68013302F07F02D2B204
:1055F0001A707B6802331B781B027A6803321278B8
:1056000013434FF60172934242D04FF60172934218
:1056100000F3E88040F2112293422FDCB3F5007FC3
:10562000C0F2E080A3F50073112B00F2DB8001A231
:1056300052F823F09D560008A9560008C9560008E4
:10564000E9560008F5560008FF5600089D57000867
:10565000A9570008B5570008C1570008E5570008CA
:10566000E5570008E5570008E5570008E55700082A
:10567000E5570008CD570008D9570008B3F57F4F0C
:1056800040F0B0807B8819467868FFF72DFDAEE0CA
:105690007B8819467868FFF761FDA8E07B8819468A
:1056A0007868FFF7A1FDA2E0FEF772FC0346002B2D
:1056B00005D17B8819467868FEF760FE97E0722175
:1056C0007868FEF737FE92E0FEF720FC0346002BD9
:1056D00005D17B8819467868FEF750FE87E0722175
:1056E0007868FEF727FE82E07B8819467868FEF727
:1056F00045FE7CE004217868FEF740FE77E07B8879
:10570000062B46D17B6804331B781B029BB27A6858
:105710000532127813447B817B8940F6FB729342F9
:1057200004D931217868FEF705FE60E07B681A78BD
:10573000394B1B684032D2B21A70374B1B680133A9
:105740007A6852781A70344B1B6802337A68927800
:105750001A70314B1B6803337A68D2781A700023B1
:10576000BB810AE02C4B1B68BA8904321344BA8906
:10577000D2B21A70BB890133BB81BA897B89043BE1
:105780009A42EFDB254B1B687A89043292B21A8069
:105790002DE013217868FEF7CDFD28E07B881946BF
:1057A0007868FFF7D7FD22E07B8819467868FFF715
:1057B0005FFE1CE07B8819467868FFF78DFE16E0D7
:1057C0007B8819467868FFF7D0FE10E07B88194681
:1057D0007868FFF73DFD0AE07B8819467868FFF797
:1057E0007FFD04E031217868FEF7A4FD00BF0B4B7C
:1057F0001B681B88002B0BD0FB7B002B08D0064BB3
:105800001B681B787F2B03D0044B1B6800221A8077
:1058100000BF1037BD4680BD042B0320082B03209A
:1058200080B584B000AF78600B467B8013467B70F8
:105830007B88022B04D813217868FEF77BFD92E069
:105840007B6801331B78002B04D17B6802331B7803
:10585000442B04D031217868FEF76CFD83E07B880F
:105860000B2B04D013217868FEF764FD7BE0002049
:10587000FEF7DCFD0346FB73FB7B002B6DD13C4B3D
:105880005B7B002B03D03A4B5B7B042B60D17B68A6
:1058900003331B781A067B6804331B781B041A44F5
:1058A0007B6805331B781B0213447A680632127832
:1058B00013441A462E4B1A602D4B00229A602C4B33
:1058C00001221A737B6807331B781A067B6808333A
:1058D0001B781B041A447B6809331B781B02134492
:1058E0007A680A32127813441A46214B5A60204BC8
:1058F00018681F4B1A681E4B5B6813441946FEF765
:1059000053F90346002B1ED0194B5B6803F00703C5
:10591000002B03D070217868FEF70CFD7B681B78A4
:105920004033DBB23B7220237B720F23BB72F02328
:10593000FB720F4A7B78537307F108030421184662
:10594000FEF7CEFC0FE031217868FEF7F3FC0AE0A9
:1059500024217868FEF7EEFC05E0FB7B19467868A9
:10596000FEF7E8FCFFE700BF1037BD4680BD00BF73
:10597000F02A032080B584B000AF78600B467B80AE
:105980000A4B1B88FB81FB89B3F5007F06D17B881E
:10599000012219467868FFF743FF03E01121786878
:1059A000FEF7C8FC00BF1037BD4680BDE005FA0B0E
:1059B00080B582B000AF78600B467B807B88022286
:1059C00019467868FFF72CFF00BF0837BD4680BD39
:1059D0002DE9B04F8CB000AF78600B467B807B88A0
:1059E000012B04D813217868FEF7A4FC2CE1994B15
:1059F0005B7B012B40F0C0807B88023B7B840023D3
:105A000087F82F307B8C03F007039BB2002B40F00C
:105A1000AE80904B9A687B8C1A448E4B5B689A429E
:105A200000F2A5807B6801331A788A4B1B7B9A426F
:105A300040F09880874B1B7B0133DAB2854B1A7399
:105A400004F050FF0023BB6264E0BB6A09337A684C
:105A500013441B781A06BB6A083379680B441B7819
:105A60001B041A44BB6A073379680B441B781B027A
:105A70001344BA6A063279680A4412781344FB6107
:105A8000BB6A05337A6813441B781A06BB6A043371
:105A900079680B441B781B041A44BB6A033379688A
:105AA0000B441B781B021344BA6A023279680A4419
:105AB00012781344BB61FB6900229A4693464FF06B
:105AC00000024FF0000353460022B96900200C4643
:105AD000054612EB040843EB0509C7E904895D4B51
